{
  "_format": "hh-sol-artifact-1",
  "contractName": "PPPContract",
  "sourceName": "contracts/PPPContract.sol",
  "abi": [
    {
      "inputs": [
        {
          "internalType": "address",
          "name": "_multiSigWallet",
          "type": "address"
        }
      ],
      "stateMutability": "payable",
      "type": "constructor"
    },
    {
      "inputs": [
        {
          "internalType": "address",
          "name": "_user",
          "type": "address"
        }
      ],
      "name": "addUser",
      "outputs": [],
      "stateMutability": "nonpayable",
      "type": "function"
    },
    {
      "inputs": [],
      "name": "approveWork",
      "outputs": [],
      "stateMutability": "nonpayable",
      "type": "function"
    },
    {
      "inputs": [
        {
          "internalType": "address payable",
          "name": "_contractor",
          "type": "address"
        }
      ],
      "name": "assignContractor",
      "outputs": [],
      "stateMutability": "nonpayable",
      "type": "function"
    },
    {
      "inputs": [
        {
          "internalType": "address",
          "name": "_regulator",
          "type": "address"
        }
      ],
      "name": "assignRegulator",
      "outputs": [],
      "stateMutability": "nonpayable",
      "type": "function"
    },
    {
      "inputs": [],
      "name": "completeContract",
      "outputs": [],
      "stateMutability": "nonpayable",
      "type": "function"
    },
    {
      "inputs": [],
      "name": "completionPeriod",
      "outputs": [
        {
          "internalType": "uint256",
          "name": "",
          "type": "uint256"
        }
      ],
      "stateMutability": "view",
      "type": "function"
    },
    {
      "inputs": [],
      "name": "contractFunds",
      "outputs": [
        {
          "internalType": "uint256",
          "name": "",
          "type": "uint256"
        }
      ],
      "stateMutability": "view",
      "type": "function"
    },
    {
      "inputs": [],
      "name": "contractor",
      "outputs": [
        {
          "internalType": "address payable",
          "name": "",
          "type": "address"
        }
      ],
      "stateMutability": "view",
      "type": "function"
    },
    {
      "inputs": [],
      "name": "currentMonth",
      "outputs": [
        {
          "internalType": "uint256",
          "name": "",
          "type": "uint256"
        }
      ],
      "stateMutability": "view",
      "type": "function"
    },
    {
      "inputs": [],
      "name": "fundsReleased",
      "outputs": [
        {
          "internalType": "bool",
          "name": "",
          "type": "bool"
        }
      ],
      "stateMutability": "view",
      "type": "function"
    },
    {
      "inputs": [],
      "name": "government",
      "outputs": [
        {
          "internalType": "address payable",
          "name": "",
          "type": "address"
        }
      ],
      "stateMutability": "view",
      "type": "function"
    },
    {
      "inputs": [],
      "name": "initialInvestment",
      "outputs": [
        {
          "internalType": "uint256",
          "name": "",
          "type": "uint256"
        }
      ],
      "stateMutability": "view",
      "type": "function"
    },
    {
      "inputs": [],
      "name": "inspectWork",
      "outputs": [],
      "stateMutability": "nonpayable",
      "type": "function"
    },
    {
      "inputs": [
        {
          "internalType": "address",
          "name": "_user",
          "type": "address"
        }
      ],
      "name": "isUser",
      "outputs": [
        {
          "internalType": "bool",
          "name": "",
          "type": "bool"
        }
      ],
      "stateMutability": "view",
      "type": "function"
    },
    {
      "inputs": [],
      "name": "multiSigWallet",
      "outputs": [
        {
          "internalType": "contract MultiSigWallet",
          "name": "",
          "type": "address"
        }
      ],
      "stateMutability": "view",
      "type": "function"
    },
    {
      "inputs": [
        {
          "internalType": "uint256",
          "name": "_rating",
          "type": "uint256"
        }
      ],
      "name": "rateWork",
      "outputs": [],
      "stateMutability": "nonpayable",
      "type": "function"
    },
    {
      "inputs": [
        {
          "internalType": "address",
          "name": "",
          "type": "address"
        }
      ],
      "name": "ratings",
      "outputs": [
        {
          "internalType": "uint256",
          "name": "",
          "type": "uint256"
        }
      ],
      "stateMutability": "view",
      "type": "function"
    },
    {
      "inputs": [],
      "name": "regulator",
      "outputs": [
        {
          "internalType": "address",
          "name": "",
          "type": "address"
        }
      ],
      "stateMutability": "view",
      "type": "function"
    },
    {
      "inputs": [],
      "name": "regulatorApproval",
      "outputs": [
        {
          "internalType": "bool",
          "name": "",
          "type": "bool"
        }
      ],
      "stateMutability": "view",
      "type": "function"
    },
    {
      "inputs": [],
      "name": "releaseInitialInvestment",
      "outputs": [],
      "stateMutability": "nonpayable",
      "type": "function"
    },
    {
      "inputs": [
        {
          "internalType": "uint256",
          "name": "_workCompleted",
          "type": "uint256"
        }
      ],
      "name": "submitWork",
      "outputs": [],
      "stateMutability": "nonpayable",
      "type": "function"
    },
    {
      "inputs": [
        {
          "internalType": "uint256",
          "name": "",
          "type": "uint256"
        }
      ],
      "name": "users",
      "outputs": [
        {
          "internalType": "address",
          "name": "",
          "type": "address"
        }
      ],
      "stateMutability": "view",
      "type": "function"
    },
    {
      "inputs": [
        {
          "internalType": "address",
          "name": "",
          "type": "address"
        }
      ],
      "name": "workApprovals",
      "outputs": [
        {
          "internalType": "bool",
          "name": "",
          "type": "bool"
        }
      ],
      "stateMutability": "view",
      "type": "function"
    },
    {
      "inputs": [],
      "name": "workCompleted",
      "outputs": [
        {
          "internalType": "uint256",
          "name": "",
          "type": "uint256"
        }
      ],
      "stateMutability": "view",
      "type": "function"
    }
  ],
  "bytecode": "0x60806040526040516200204a3803806200204a83398181016040528101906200002991906200017d565b336000806101000a81548173ffffffffffffffffffffffffffffffffffffffff021916908373ffffffffffffffffffffffffffffffffffffffff1602179055506244aa206004819055506216e3606005819055506004600781905550600160088190555060006009819055506000600a60006101000a81548160ff0219169083151502179055506000600a60016101000a81548160ff02191690831515021790555080600a60026101000a81548173ffffffffffffffffffffffffffffffffffffffff021916908373ffffffffffffffffffffffffffffffffffffffff16021790555050620001af565b600080fd5b600073ffffffffffffffffffffffffffffffffffffffff82169050919050565b6000620001458262000118565b9050919050565b620001578162000138565b81146200016357600080fd5b50565b60008151905062000177816200014c565b92915050565b60006020828403121562000196576200019562000113565b5b6000620001a68482850162000166565b91505092915050565b611e8b80620001bf6000396000f3fe608060405234801561001057600080fd5b50600436106101585760003560e01c80639e01dfbb116100c3578063c4c115231161007c578063c4c1152314610381578063dd8fee141461039d578063ddb3a532146103bb578063f776e362146103c5578063fbfd2045146103e1578063ffbd1f1f146103ff57610158565b80639e01dfbb146102e3578063a9912a7014610313578063b22879d614610331578063b4fedc111461033b578063b564e92614610345578063bdcc778f1461036357610158565b80634b8feb4f116101155780634b8feb4f146102315780634faf0ffc1461024f5780637fadf50e1461026d578063862a4d471461028b578063946f425d146102a9578063987f2ac6146102c757610158565b80632485de181461015d5780632672f5261461018d578063365b98b2146101ab57806338ab4cf2146101db5780634209fff1146101e5578063421b2d8b14610215575b600080fd5b610177600480360381019061017291906112b1565b61041b565b60405161018491906112f9565b60405180910390f35b61019561043b565b6040516101a29190611335565b60405180910390f35b6101c560048036038101906101c09190611386565b61045f565b6040516101d291906113c2565b60405180910390f35b6101e361049e565b005b6101ff60048036038101906101fa91906112b1565b610649565b60405161020c91906112f9565b60405180910390f35b61022f600480360381019061022a91906112b1565b6106f7565b005b610239610834565b604051610246919061143c565b60405180910390f35b61025761085a565b60405161026491906112f9565b60405180910390f35b61027561086d565b6040516102829190611466565b60405180910390f35b610293610873565b6040516102a09190611466565b60405180910390f35b6102b1610879565b6040516102be9190611466565b60405180910390f35b6102e160048036038101906102dc91906114ad565b61087f565b005b6102fd60048036038101906102f891906112b1565b610951565b60405161030a9190611466565b60405180910390f35b61031b610969565b6040516103289190611466565b60405180910390f35b61033961096f565b005b610343610b3f565b005b61034d610e8d565b60405161035a91906112f9565b60405180910390f35b61036b610ea0565b6040516103789190611466565b60405180910390f35b61039b60048036038101906103969190611386565b610ea6565b005b6103a5610fae565b6040516103b291906113c2565b60405180910390f35b6103c3610fd4565b005b6103df60048036038101906103da9190611386565b611076565b005b6103e9611156565b6040516103f69190611335565b60405180910390f35b610419600480360381019061041491906112b1565b61117c565b005b600b6020528060005260406000206000915054906101000a900460ff1681565b60008054906101000a900473ffffffffffffffffffffffffffffffffffffffff1681565b6002818154811061046f57600080fd5b906000526020600020016000915054906101000a900473ffffffffffffffffffffffffffffffffffffffff1681565b60008054906101000a900473ffffffffffffffffffffffffffffffffffffffff1673ffffffffffffffffffffffffffffffffffffffff163373ffffffffffffffffffffffffffffffffffffffff161461052c576040517f08c379a00000000000000000000000000000000000000000000000000000000081526004016105239061155d565b60405180910390fd5b600a60019054906101000a900460ff161561057c576040517f08c379a0000000000000000000000000000000000000000000000000000000008152600401610573906115ef565b60405180910390fd5b6005544710156105c1576040517f08c379a00000000000000000000000000000000000000000000000000000000081526004016105b890611681565b60405180910390fd5b600554600460008282546105d591906116d0565b92505081905550600160009054906101000a900473ffffffffffffffffffffffffffffffffffffffff1673ffffffffffffffffffffffffffffffffffffffff166108fc6005549081150290604051600060405180830381858888f19350505050158015610646573d6000803e3d6000fd5b50565b600080600090505b6002805490508110156106ec578273ffffffffffffffffffffffffffffffffffffffff166002828154811061068957610688611704565b5b9060005260206000200160009054906101000a900473ffffffffffffffffffffffffffffffffffffffff1673ffffffffffffffffffffffffffffffffffffffff16036106d95760019150506106f2565b80806106e490611733565b915050610651565b50600090505b919050565b60008054906101000a900473ffffffffffffffffffffffffffffffffffffffff1673ffffffffffffffffffffffffffffffffffffffff163373ffffffffffffffffffffffffffffffffffffffff1614610785576040517f08c379a000000000000000000000000000000000000000000000000000000000815260040161077c9061155d565b60405180910390fd5b61078e81610649565b156107ce576040517f08c379a00000000000000000000000000000000000000000000000000000000081526004016107c5906117c7565b60405180910390fd5b6002819080600181540180825580915050600190039060005260206000200160009091909190916101000a81548173ffffffffffffffffffffffffffffffffffffffff021916908373ffffffffffffffffffffffffffffffffffffffff16021790555050565b600a60029054906101000a900473ffffffffffffffffffffffffffffffffffffffff1681565b600a60009054906101000a900460ff1681565b60095481565b60085481565b60055481565b60008054906101000a900473ffffffffffffffffffffffffffffffffffffffff1673ffffffffffffffffffffffffffffffffffffffff163373ffffffffffffffffffffffffffffffffffffffff161461090d576040517f08c379a00000000000000000000000000000000000000000000000000000000081526004016109049061155d565b60405180910390fd5b80600160006101000a81548173ffffffffffffffffffffffffffffffffffffffff021916908373ffffffffffffffffffffffffffffffffffffffff16021790555050565b60066020528060005260406000206000915090505481565b60075481565b600360009054906101000a900473ffffffffffffffffffffffffffffffffffffffff1673ffffffffffffffffffffffffffffffffffffffff163373ffffffffffffffffffffffffffffffffffffffff16146109ff576040517f08c379a00000000000000000000000000000000000000000000000000000000081526004016109f690611859565b60405180910390fd5b60075460085411610a45576040517f08c379a0000000000000000000000000000000000000000000000000000000008152600401610a3c906118eb565b60405180910390fd5b60008060005b600280549050811015610b04578280610a6390611733565b9350506006600060028381548110610a7e57610a7d611704565b5b9060005260206000200160009054906101000a900473ffffffffffffffffffffffffffffffffffffffff1673ffffffffffffffffffffffffffffffffffffffff1673ffffffffffffffffffffffffffffffffffffffff1681526020019081526020016000205482610aef919061190b565b91508080610afc90611733565b915050610a4b565b5060008282610b13919061196e565b90506003811115610b3a576001600a60006101000a81548160ff0219169083151502179055505b505050565b600160009054906101000a900473ffffffffffffffffffffffffffffffffffffffff1673ffffffffffffffffffffffffffffffffffffffff163373ffffffffffffffffffffffffffffffffffffffff1614610bcf576040517f08c379a0000000000000000000000000000000000000000000000000000000008152600401610bc690611a11565b60405180910390fd5b60075460085411610c15576040517f08c379a0000000000000000000000000000000000000000000000000000000008152600401610c0c90611aa3565b60405180910390fd5b60646009541015610c5b576040517f08c379a0000000000000000000000000000000000000000000000000000000008152600401610c5290611b35565b60405180910390fd5b600a60009054906101000a900460ff16610caa576040517f08c379a0000000000000000000000000000000000000000000000000000000008152600401610ca190611bc7565b60405180910390fd5b60008060005b600280549050811015610d69578280610cc890611733565b9350506006600060028381548110610ce357610ce2611704565b5b9060005260206000200160009054906101000a900473ffffffffffffffffffffffffffffffffffffffff1673ffffffffffffffffffffffffffffffffffffffff1673ffffffffffffffffffffffffffffffffffffffff1681526020019081526020016000205482610d54919061190b565b91508080610d6190611733565b915050610cb0565b5060008282610d78919061196e565b905060038111610dbd576040517f08c379a0000000000000000000000000000000000000000000000000000000008152600401610db490611c59565b60405180910390fd5b600454471015610e02576040517f08c379a0000000000000000000000000000000000000000000000000000000008152600401610df990611681565b60405180910390fd5b600160009054906101000a900473ffffffffffffffffffffffffffffffffffffffff1673ffffffffffffffffffffffffffffffffffffffff166108fc6004549081150290604051600060405180830381858888f19350505050158015610e6c573d6000803e3d6000fd5b506001600a60016101000a81548160ff021916908315150217905550505050565b600a60019054906101000a900460ff1681565b60045481565b600160009054906101000a900473ffffffffffffffffffffffffffffffffffffffff1673ffffffffffffffffffffffffffffffffffffffff163373ffffffffffffffffffffffffffffffffffffffff1614610f36576040517f08c379a0000000000000000000000000000000000000000000000000000000008152600401610f2d90611a11565b60405180910390fd5b6019811115610f7a576040517f08c379a0000000000000000000000000000000000000000000000000000000008152600401610f7190611d11565b60405180910390fd5b8060096000828254610f8c919061190b565b9250508190555060086000815480929190610fa690611733565b919050555050565b600360009054906101000a900473ffffffffffffffffffffffffffffffffffffffff1681565b610fdd33610649565b61101c576040517f08c379a000000000000000000000000000000000000000000000000000000000815260040161101390611da3565b60405180910390fd5b6001600b60003373ffffffffffffffffffffffffffffffffffffffff1673ffffffffffffffffffffffffffffffffffffffff16815260200190815260200160002060006101000a81548160ff021916908315150217905550565b61107f33610649565b6110be576040517f08c379a00000000000000000000000000000000000000000000000000000000081526004016110b590611da3565b60405180910390fd5b600181101580156110d0575060058111155b61110f576040517f08c379a000000000000000000000000000000000000000000000000000000000815260040161110690611e35565b60405180910390fd5b80600660003373ffffffffffffffffffffffffffffffffffffffff1673ffffffffffffffffffffffffffffffffffffffff1681526020019081526020016000208190555050565b600160009054906101000a900473ffffffffffffffffffffffffffffffffffffffff1681565b60008054906101000a900473ffffffffffffffffffffffffffffffffffffffff1673ffffffffffffffffffffffffffffffffffffffff163373ffffffffffffffffffffffffffffffffffffffff161461120a576040517f08c379a00000000000000000000000000000000000000000000000000000000081526004016112019061155d565b60405180910390fd5b80600360006101000a81548173ffffffffffffffffffffffffffffffffffffffff021916908373ffffffffffffffffffffffffffffffffffffffff16021790555050565b600080fd5b600073ffffffffffffffffffffffffffffffffffffffff82169050919050565b600061127e82611253565b9050919050565b61128e81611273565b811461129957600080fd5b50565b6000813590506112ab81611285565b92915050565b6000602082840312156112c7576112c661124e565b5b60006112d58482850161129c565b91505092915050565b60008115159050919050565b6112f3816112de565b82525050565b600060208201905061130e60008301846112ea565b92915050565b600061131f82611253565b9050919050565b61132f81611314565b82525050565b600060208201905061134a6000830184611326565b92915050565b6000819050919050565b61136381611350565b811461136e57600080fd5b50565b6000813590506113808161135a565b92915050565b60006020828403121561139c5761139b61124e565b5b60006113aa84828501611371565b91505092915050565b6113bc81611273565b82525050565b60006020820190506113d760008301846113b3565b92915050565b6000819050919050565b60006114026113fd6113f884611253565b6113dd565b611253565b9050919050565b6000611414826113e7565b9050919050565b600061142682611409565b9050919050565b6114368161141b565b82525050565b6000602082019050611451600083018461142d565b92915050565b61146081611350565b82525050565b600060208201905061147b6000830184611457565b92915050565b61148a81611314565b811461149557600080fd5b50565b6000813590506114a781611481565b92915050565b6000602082840312156114c3576114c261124e565b5b60006114d184828501611498565b91505092915050565b600082825260208201905092915050565b7f4f6e6c7920676f7665726e6d656e742063616e2063616c6c207468697320667560008201527f6e6374696f6e0000000000000000000000000000000000000000000000000000602082015250565b60006115476026836114da565b9150611552826114eb565b604082019050919050565b600060208201905081810360008301526115768161153a565b9050919050565b7f496e697469616c20696e766573746d656e7420616c72656164792072656c656160008201527f7365642e00000000000000000000000000000000000000000000000000000000602082015250565b60006115d96024836114da565b91506115e48261157d565b604082019050919050565b60006020820190508181036000830152611608816115cc565b9050919050565b7f436f6e747261637420646f6573206e6f74206861766520656e6f75676820667560008201527f6e64732e00000000000000000000000000000000000000000000000000000000602082015250565b600061166b6024836114da565b91506116768261160f565b604082019050919050565b6000602082019050818103600083015261169a8161165e565b9050919050565b7f4e487b7100000000000000000000000000000000000000000000000000000000600052601160045260246000fd5b60006116db82611350565b91506116e683611350565b92508282039050818111156116fe576116fd6116a1565b5b92915050565b7f4e487b7100000000000000000000000000000000000000000000000000000000600052603260045260246000fd5b600061173e82611350565b91507fffffffffffffffffffffffffffffffffffffffffffffffffffffffffffffffff82036117705761176f6116a1565b5b600182019050919050565b7f5573657220616c72656164792065786973747300000000000000000000000000600082015250565b60006117b16013836114da565b91506117bc8261177b565b602082019050919050565b600060208201905081810360008301526117e0816117a4565b9050919050565b7f4f6e6c7920726567756c61746f722063616e2063616c6c20746869732066756e60008201527f6374696f6e000000000000000000000000000000000000000000000000000000602082015250565b60006118436025836114da565b915061184e826117e7565b604082019050919050565b6000602082019050818103600083015261187281611836565b9050919050565b7f43616e6e6f7420696e737065637420776f726b206265666f726520636f6d706c60008201527f6574696f6e20706572696f640000000000000000000000000000000000000000602082015250565b60006118d5602c836114da565b91506118e082611879565b604082019050919050565b60006020820190508181036000830152611904816118c8565b9050919050565b600061191682611350565b915061192183611350565b9250828201905080821115611939576119386116a1565b5b92915050565b7f4e487b7100000000000000000000000000000000000000000000000000000000600052601260045260246000fd5b600061197982611350565b915061198483611350565b9250826119945761199361193f565b5b828204905092915050565b7f4f6e6c7920636f6e74726163746f722063616e2063616c6c207468697320667560008201527f6e6374696f6e0000000000000000000000000000000000000000000000000000602082015250565b60006119fb6026836114da565b9150611a068261199f565b604082019050919050565b60006020820190508181036000830152611a2a816119ee565b9050919050565b7f436f6e747261637420636f6d706c6574696f6e20706572696f64206e6f74207260008201527f6561636865642e00000000000000000000000000000000000000000000000000602082015250565b6000611a8d6027836114da565b9150611a9882611a31565b604082019050919050565b60006020820190508181036000830152611abc81611a80565b9050919050565b7f576f726b20636f6d706c6574696f6e206e6f742073756666696369656e74206660008201527f6f7220636f6e747261637420636f6d706c6574696f6e2e000000000000000000602082015250565b6000611b1f6037836114da565b9150611b2a82611ac3565b604082019050919050565b60006020820190508181036000830152611b4e81611b12565b9050919050565b7f576f726b206d75737420626520617070726f76656420627920726567756c617460008201527f6f72206265666f726520636f6e747261637420636f6d706c6574696f6e2e0000602082015250565b6000611bb1603e836114da565b9150611bbc82611b55565b604082019050919050565b60006020820190508181036000830152611be081611ba4565b9050919050565b7f4176657261676520726174696e67206f66207468652066696e616c2070726f6a60008201527f6563742073686f756c642062652061626f766520332e00000000000000000000602082015250565b6000611c436036836114da565b9150611c4e82611be7565b604082019050919050565b60006020820190508181036000830152611c7281611c36565b9050919050565b7f496e76616c696420776f726b20636f6d706c6574696f6e2e204d6178696d756d60008201527f20323525206f6620776f726b2063616e20626520636f6d706c6574656420696e60208201527f206f6e65206d6f6e74682e000000000000000000000000000000000000000000604082015250565b6000611cfb604b836114da565b9150611d0682611c79565b606082019050919050565b60006020820190508181036000830152611d2a81611cee565b9050919050565b7f4f6e6c792075736572732063616e2063616c6c20746869732066756e6374696f60008201527f6e00000000000000000000000000000000000000000000000000000000000000602082015250565b6000611d8d6021836114da565b9150611d9882611d31565b604082019050919050565b60006020820190508181036000830152611dbc81611d80565b9050919050565b7f496e76616c696420726174696e672e20526174696e672073686f756c6420626560008201527f206265747765656e203120616e6420352e000000000000000000000000000000602082015250565b6000611e1f6031836114da565b9150611e2a82611dc3565b604082019050919050565b60006020820190508181036000830152611e4e81611e12565b905091905056fea2646970667358221220fca0350ea2389ea4b9b1e964822948db2df7542af060646d3fd0820f232fe40f64736f6c63430008120033",
  "linkReferences": {},
  "deployedLinkReferences": {}
}